:100000000C942A000C943F000C943F000C943F0089
:100010000C943F000C943F000C943F000C943F0064
:100020000C943F000C943F000C943F000C943F0054
:100030000C943F000C943F000C943F000C943F0044
:100040000C943F000C943F000C943F000C943F0034
:100050000C943F0011241FBECFE5D8E0DEBFCDBF1A
:1000600010E0A0E6B0E0E4E8FDE002C005900D92EB
:10007000A637B107D9F70E940C030C94C0060C9464
:100080000000442379F1413009F05FC0813079F0FC
:1000900028F08230A9F08330E1F008952AB381E09E
:1000A00090E001C0880F6A95EAF7822B2CC027B335
:1000B00081E090E001C0880F6A95EAF7822B2EC09C
:1000C00024B381E090E001C0880F6A95EAF7822BA3
:1000D00030C021B381E090E001C0880F6A95EAF753
:1000E000822B32C0813089F028F08230C9F0833011
:1000F00011F108952AB381E090E001C0880F6A955C
:10010000EAF7809582238ABB089527B381E090E0C7
:1001100001C0880F6A95EAF78095822387BB08950E
:1001200024B381E090E001C0880F6A95EAF78095DA
:10013000822384BB089521B381E090E001C0880F41
:100140006A95EAF78095822381BB0895442379F16B
:10015000413009F05FC0813079F028F08230A9F099
:100160008330E1F008952BB381E090E001C0880F67
:100170006A95EAF7822B2CC028B381E090E001C099
:10018000880F6A95EAF7822B2EC025B381E090E0B4
:1001900001C0880F6A95EAF7822B30C022B381E054
:1001A00090E001C0880F6A95EAF7822B32C0813057
:1001B00089F028F08230C9F0833011F108952BB313
:1001C00081E090E001C0880F6A95EAF7809582236C
:1001D0008BBB089528B381E090E001C0880F6A9539
:1001E000EAF78095822388BB089525B381E090E0EB
:1001F00001C0880F6A95EAF78095822385BB089530
:1002000022B381E090E001C0880F6A95EAF78095FB
:10021000822382BB0895FA01813041F028F08230B8
:1002200039F0833039F0089589B305C086B303C02F
:1002300083B301C080B390E002C0959587956A951D
:10024000E2F781708083089541E060E083E00E94DE
:10025000410041E061E083E00E94410041E062E052
:1002600083E00E94410041E063E083E00E9441009E
:1002700040E064E083E00E94410040E065E083E00C
:100280000E94410040E066E083E00E94410040E0BF
:1002900067E083E00E94410064E070E083E090E06A
:1002A0000E94CB0265E070E083E090E00E94CB0208
:1002B00066E070E083E090E00E94CB0267E070E0CF
:1002C00083E090E00E94CB0241E060E083E00E9486
:1002D000A60041E061E083E00E94A60041E062E008
:1002E00083E00E94A60041E063E083E00C94A60056
:1002F000BF92CF92DF92EF92FF920F931F93CF9313
:10030000DF931F92CDB7DEB7198280E6E82E80E03A
:10031000F82EB12C10E040E0612F83E00E94A6008F
:10032000670104E0AE014F5F5F4F602F83E00E94E2
:100330000B018981811113C0F601B080898181117F
:1003400008C0AE014F5F5F4F602F83E00E940B013A
:10035000F5CF8FE39CE90197F1F700C000000F5F34
:1003600094E0C90ED11C0830E9F641E0612F83E02A
:100370000E94A6001F5FEFEFEE1AFE0A143059F636
:100380008B2D0F90DF91CF911F910F91FF90EF90E8
:10039000DF90CF90BF900895CF93C82F40E061E0E9
:1003A00081E00E94A60040E062E081E00E94A60099
:1003B00040E063E081E00E94A6008BB39C2F907F19
:1003C0008F70892B8BBB41E063E081E00E94A60027
:1003D0008FE99FE00197F1F700C0000040E063E083
:1003E00081E00E94A6002BB330E1C39FC00111241D
:1003F000922F9F70892B8BBB41E063E081E00E94CC
:10040000A6008FE99FE00197F1F700C0000040E0EF
:1004100063E081E00E94A6008FE19EE40197F1F77E
:1004200000C00000CF91089541E061E081E00E94AA
:10043000410041E062E081E00E94410041E063E070
:1004400081E00E94410041E064E080E00E944100C0
:1004500041E065E080E00E94410041E066E080E02C
:100460000E94410041E067E080E00E9441002FEFE0
:1004700081EE94E0215080409040E1F700C0000000
:1004800083E30E94CC0182E30E94CC0188E20E94B7
:10049000CC018CE00E94CC0181E00E94CC0186E07E
:1004A0000E94CC0182E00C94CC01CF93C82F41E094
:1004B00061E081E00E94A60040E062E081E00E94ED
:1004C000A60040E063E081E00E94A6008BB39C2F71
:1004D000907F8F70892B8BBB41E063E081E00E94AD
:1004E000A6008FE99FE00197F1F700C0000040E00F
:1004F00063E081E00E94A6002BB330E1C39FC001FE
:100500001124922F9F70892B8BBB41E063E081E027
:100510000E94A6008FE99FE00197F1F700C000005C
:1005200040E063E081E00E94A6008FE19EE4019735
:10053000F1F700C00000CF9108950F931F93CF9360
:100540008C01C0E0F801EC0FF11D8081882321F0BF
:100550000E945502CF5FF6CFCF911F910F91089562
:10056000CF93DF9300D0CDB7DEB790E8998390ECBE
:100570009A83E1E0F0E0EC0FFD1FE80FF11DE60FBC
:10058000F11D80810F900F90DF91CF910C94CC01E1
:1005900081E00C94CC01813081F028F08230B9F0F8
:1005A0008330F9F008952BB381E090E001C0880F0B
:1005B0006A95EAF7822B8BBB089528B381E090E01F
:1005C00001C0880F6A95EAF7822B88BB089525B38E
:1005D00081E090E001C0880F6A95EAF7822B85BB25
:1005E000089522B381E090E001C0880F6A95EAF790
:1005F000822B82BB08959F938F9380E790E09F9317
:100600008F937F936F930E94D6030F900F900F905C
:100610000F900F900F900895CF93DF93CDB7DEB773
:1006200027970FB6F894DEBF0FBECDBF0E942401FE
:100630000E941402D12C00E0E12CF12C0E947801E0
:10064000182F80ED810F8A30A8F48D2D90E0E1E025
:10065000F0E0EC0FFD1FE80FF91F1083E2E0F0E07F
:10066000EC0FFD1FE80FF91F1082D394812F0E9419
:100670005502E4CF86ED810F823020F0812F8D7FEF
:100680008D3259F4CE0101960E94B003F82E1A82E1
:10069000812F0E945502012F4FC01D3309F04EC01B
:1006A000CE0101960E94B003182F682F1A820B32D8
:1006B00081F030F40A3291F4F89EE02C11240EC03F
:1006C0000D3251F00F3251F48F2D0E94A403E82E09
:1006D00005C0EF2CE80E02C0EF2CE81A0E94C802F9
:1006E00060E080E00E94B002BE016F5F7F4F8F2DFF
:1006F00090E00E94FB02CE0101960E949D02802F95
:100700000E945502BE016F5F7F4F812F90E00E94D3
:10071000FB02CE0101960E949D0283E790E00E94B9
:100720009D02BE016F5F7F4F8E2D90E00E94FB0205
:10073000CE0101960E949D02D12C80CF133609F084
:100740007DCF0E94C8027ACF991B79E004C0991F1F
:10075000961708F0961B881F7A95C9F7809508951B
:10076000FC0188279927E89421912032E9F3293068
:1007700010F02E30C8F32B3241F02D3239F468944A
:1007800004C00E94CE03820F911D219120532A3074
:10079000C0F31EF4909581959F4F08957AE0979F3E
:1007A000902D879F802D910D11240895AEE0B0E02B
:1007B000ECEDF3E00C9497060D891E8986E08C839E
:1007C0001A8309838FEF9FE79E838D83AE01475E77
:1007D0005F4F6F89788DCE0101960E94F803EF81FB
:1007E000F885E00FF11F10822E96E4E00C94B3061A
:1007F000ABE0B0E0EEEFF3E00C9489066C017B0116
:100800008A01FC0117821682838181FFCCC1CE014F
:1008100001963C01F6019381F70193FD859193FFC9
:1008200081917F01882309F4BAC1853239F493FD9F
:10083000859193FF81917F01853229F4B60190E083
:100840000E94EF05E7CF912C212C312CFFE1F3150D
:10085000D8F08B3279F038F4803279F08332A1F419
:10086000232D20611DC08D3261F0803369F4232D6A
:10087000216016C0832D8260382EE32DE4603E2E69
:100880002AC0F32DF8601DC037FC2DC020ED280FC5
:100890002A3040F08E32B9F436FC81C1232D206419
:1008A000322E19C036FE06C08AE0989E200D112413
:1008B000922E11C0EAE02E9E200D1124222EF32D3F
:1008C000F0623F2E08C08C3621F4832D8068382ECC
:1008D00002C0883641F4F70193FD859193FF819121
:1008E0007F018111B3CF982F9F7D9554933028F4C9
:1008F0000C5F1F4F9FE399830DC0833631F0833720
:1009000071F0833509F059C021C0F80180818983D5
:100910000E5F1F4F88248394912C530113C028012C
:10092000F2E04F0E511CF801A080B18036FE03C0EA
:10093000692D70E002C06FEF7FEFC5010E94E405F2
:100940004C018201F32DFF773F2E16C0280122E0D3
:10095000420E511CF801A080B18036FE03C0692D03
:1009600070E002C06FEF7FEFC5010E94D9054C0116
:10097000F32DF0683F2E820133FC1BC0822D90E0E6
:1009800088169906B0F4B60180E290E00E94EF0567
:100990002A94F4CFF50137FC859137FE81915F01F0
:1009A000B60190E00E94EF0521102A9421E0821AFE
:1009B00091088114910471F7E8C0843611F08936EA
:1009C00041F5F80137FE07C0608171818281938112
:1009D0000C5F1F4F08C060817181072E000C880BCF
:1009E000990B0E5F1F4FF32DFF763F2E97FF09C027
:1009F00090958095709561957F4F8F4F9F4FF068D0
:100A00003F2E2AE030E0A3010E942B06882E861894
:100A100045C0853731F4232D2F7EB22E2AE030E0F9
:100A200025C0932D997FB92E8F36C1F018F48835E3
:100A300079F0B5C0803719F0883721F0B0C0E92FC0
:100A4000E061BE2EB4FE0DC0FB2DF460BF2E09C0C8
:100A500034FE0AC0292F2660B22E06C028E030E0FE
:100A600005C020E130E002C020E132E0F801B7FE2D
:100A700007C060817181828193810C5F1F4F06C026
:100A80006081718180E090E00E5F1F4FA3010E94A2
:100A90002B06882E8618FB2DFF773F2E36FE0DC0C5
:100AA000232D2E7FA22E891458F434FE0BC032FC65
:100AB00009C0832D8E7EA82E05C0B82CA32C03C0A0
:100AC000B82C01C0B92CA4FE0FC0FE01E80DF11D29
:100AD0008081803321F49A2D997EA92E09C0A2FE2F
:100AE00006C0B394B39404C08A2D867809F0B394F9
:100AF000A3FC11C0A0FE06C0B21488F4280C922CEE
:100B00009B180EC0B21460F4B60180E290E00E941F
:100B1000EF05B394F7CFB21418F42B1802C0982C39
:100B2000212CA4FE10C0B60180E390E00E94EF05E6
:100B3000A2FE17C0A1FC03C088E790E002C088E5D0
:100B400090E0B6010CC08A2D867859F0A1FE02C053
:100B50008BE201C080E2A7FC8DE2B60190E00E942A
:100B6000EF05891438F4B60180E390E00E94EF05A8
:100B70009A94F7CF8A94F301E80DF11D8081B601B4
:100B800090E00E94EF058110F5CF222009F442CEBB
:100B9000B60180E290E00E94EF052A94F6CFF601BC
:100BA0008681978102C08FEF9FEF2B96E2E10C9434
:100BB000A506FC010590615070400110D8F78095A2
:100BC00090958E0F9F1F0895FC0161507040019019
:100BD0000110D8F7809590958E0F9F1F08950F9361
:100BE0001F93CF93DF93FB01238121FD03C08FEF80
:100BF0009FEF2CC022FF16C046815781248135818A
:100C00004217530744F4A081B1819D012F5F3F4FEC
:100C1000318320838C93268137812F5F3F4F378329
:100C2000268314C08B01EC01FB010084F185E02DCB
:100C30000995892BE1F6D80116968D919C9117970D
:100C4000019617969C938E931697CE01DF91CF91C4
:100C50001F910F910895FA01AA27283051F12031F0
:100C600081F1E8946F936E7F6E5F7F4F8F4F9F4F40
:100C7000AF4FB1E03ED0B4E03CD0670F781F891F82
:100C80009A1FA11D680F791F8A1F911DA11D6A0F50
:100C9000711D811D911DA11D20D009F468943F9103
:100CA0002AE0269F11243019305D3193DEF6CF0102
:100CB0000895462F4770405D4193B3E00FD0C9F7C8
:100CC000F6CF462F4F70405D4A3318F0495D31FD35
:100CD0004052419302D0A9F7EACFB4E0A695979588
:100CE000879577956795BA95C9F70097610571055E
:100CF00008959B01AC010A2E0694579547953795A8
:100D00002795BA95C9F7620F731F841F951FA01D01
:100D100008952F923F924F925F926F927F928F929F
:100D20009F92AF92BF92CF92DF92EF92FF920F937A
:100D30001F93CF93DF93CDB7DEB7CA1BDB0B0FB684
:100D4000F894DEBF0FBECDBF09942A883988488841
:100D50005F846E847D848C849B84AA84B984C884D7
:100D6000DF80EE80FD800C811B81AA81B981CE0FCE
:100D7000D11D0FB6F894DEBF0FBECDBFED010895B3
:040D8000F894FFCF15
:100D84003738392F3435362A3132332D63303D2B01
:060D94002564003D000093
:00000001FF
